:020000040800F2
:1000000008E2002065190008111600081316000800
:100010002D1600082F1600083116000800000000F9
:10002000000000000000000000000000331600087F
:100030003516000800000000779200082D400008E7
:100040007F1900087F1900087F1900087F19000830
:100050007F1900087F1900087F1900087F19000820
:100060007F1900087F1900087F1900087F19000810
:100070007F1900087F1900087F1900087F19000800
:100080007F1900087F1900087F1900087F190008F0
:100090007F1900087F1900087F190008F31600086F
:1000A0007F1900087F1900087F1900087F190008D0
:1000B0007F190008B3160008391600087F190008D8
:1000C0007F1900087F1900087F1900087F190008B0
:1000D0007F1900087F1900087F190008131700080E
:1000E0007F1900087F1900087F1900087F19000890
:1000F0007F1900087F1900087F1900087F19000880
:100100007F1900087F1900087F1900087F1900086F
:100110007F1900087F1900087F1900087F1900085F
:100120007F1900087F1900087F1900087F1900084F
:100130007F1900087F1900087F1900087F1900083F
:100140007F1900087F1900087F1900087F1900082F
:100150007F1900087F1900087F1900087F1900081F
:100160007F1900087F1900087F1900087F1900080F
:100170007F1900087F1900087F1900087F190008FF
:100180007F1900087F190008DFF80CD009F046F845
:10019000004800474D02000808E2002010B500F0BA
:1001A00005FE01F08BF900F083FE012001F0CAF991
:1001B000012001F0D1F9BDE810401DA009F08CB874
:1001C0001FB5684601F080FE019804B010BD10B55F
:1001D000FFF7F6FF19490968BDE81040B0FBF1F0E0
:1001E00003F033BF10B5FFF7EBFF15490A6842F083
:1001F00080720A60134900224A600A6842F00102D4
:100200000A60BDE8104003F017BE0E484068704712
:1002100010B50446FFF7D4FF00210B4A0B4608F047
:10022000B9FC02460B462046002108F0B3FC10BD85
:10023000696E6974206F6B0D0A00000054A30008FA
:10024000FCED00E0001000E040420F0000B58BB074
:10025000FFF7A4FF09A803F068FF09A90322CDE96D
:10026000072104230020CDE90530192299010292CB
:10027000CDE90310084B0220CDE900030648002316
:10028000064A07A1C03806F0FEFA09A804F0EEF805
:100290000BB0002000BD0000AC010020830400086A
:1002A0004170705461736B5374617274000000008C
:1002B000ADF5367D3421A6A808F0A4FC01F0FEF8C7
:1002C00000F0F6FD012001F03DF9012001F044F9B4
:1002D00089E00020B5A9CDE900010A2302460146C4
:1002E00007F016FA8D4800780128F2D100F022FAC2
:1002F00000F045FF012000F008FCA6A800F091FDE9
:10030000082000F002FC82468B46072000F0FDFB2F
:1003100080468946062000F0F8FB06460F46052079
:1003200000F0F3FB04460D46042000F035FF00F01A
:1003300090FFCDE90401032000F02EFF00F089FFBB
:10034000CDE90201022000F027FF00F082FFCDE995
:100350000001012000F020FF00F07BFFCDE9B31089
:1003600001F075F8024608A8A6ABA0E8F00FDDE999
:100370000401CDE90601DDE90201CDE90401DDE971
:100380000001CDE90201DDE9B310CDE900016449C6
:1003900010A808F0B1FF10A800F091FC5F480024FD
:1003A0000470204601F0CEF8002001F0D5F8B5A881
:1003B000CDE9004000224FF4FA731146104607F0D1
:1003C000A7F900F0E9FD0121002003F028FC00F06E
:1003D000EDFC01F073F8012001F0B4F8012001F008
:1003E000BBF800F065FD00F0A5F900F0C8FE0120A3
:1003F00000F08BFBA6A800F014FD6AE70EB50025FF
:1004000002AC0023CDE9005401221946184607F03A
:100410007FF9F6E70EB5414E002502AC0023CDE989
:10042000005405221946184607F072F93078002862
:10043000F4D101F087F8002001F08EF80022CDE918
:100440000054C8231146104607F062F900F0A4FDDD
:100450000121002003F0E3FB00F0A8FC01F02EF8DE
:10046000012001F06FF8012001F076F80022CDE9BB
:100470000054C8231146104607F04AF900F018FD51
:10048000CCE72DE9F0418AB003F087FCFFF79FFE2F
:10049000002406A809AE0325059470C021494FF435
:1004A00080774FF0190805202346AFF297028DE8B8
:1004B0000301CDE903741CA11D4806F0E4F906A868
:1004C000CDF80880059470C01A490023AFF2D3021A
:1004D000CDE900511648CDE9037417A1C03006F0EC
:1004E000D2F906AB059470C34FF4FD60CA21CDE983
:1004F0000210134A0620CDE9000204940023AFF253
:100500004F2208480FA1C03806F0BDF909A9002004
:1005100006F07AFA0AB0BDE8F08100000C00002075
:100520005CA00008EC0700207461736B31000000D0
:10053000AC050020EC0B00207461736B32000000EE
:10054000EC0F00207461736B3300000070B58AB04B
:100550004FF4A06001F018FA0121022001F035FDEE
:1005600042F2CF000025ADF81400FC4E0124ADF896
:100570001C50ADF8165006948DF81E5005A9304653
:1005800002F034F86020ADF800000220ADF80C0055
:10059000C001ADF81000ADF8024069463046029443
:1005A00002F00EF90121304602F08AFB01221146C9
:1005B000304602F0A4FB0021304602F08FF81D20E7
:1005C0008DF820008DF821408DF822508DF82340C1
:1005D00008A801F0DEF90AB070BD3EB50121084659
:1005E00001F0F3FC40F21710ADF8000000204FF6C8
:1005F000FF71ADF80800ADF8020001918DF80A0016
:100600004FF080446946204601F0F0FF012120466A
:1006100002F04AF80021204602F060F83EBD30B5F5
:1006200089B04FF4A06001F0AFF90121042001F07E
:10063000CCFC0024D620CA4DADF800400190ADF8A6
:100640000840ADF802408DF80A406946284601F09E
:10065000CDFF7021284602F090FB002202231146B4
:10066000284602F0C5FB0F200590ADF80C4003A909
:10067000284602F03DF801220321284602F03FFB04
:100680000121284602F04CFB0121284602F00CF81B
:10069000B348243004600021284602F01FF81E20D1
:1006A0008DF820008DF821408DF8224001208DF832
:1006B000230008A801F06DF909B030BD2DE9F0471D
:1006C0009046994602460B4608F05AFB0022A54B7D
:1006D00008F0C8FB04460D46A34AA44B08F050FBA3
:1006E000A34AA44B08F0A5FA06460F46A24AA34B1C
:1006F0004046494608F03EFB32463B4608F040FB88
:10070000DFF87C82DFF87C9242464B4608F038FBEB
:1007100006460F469C4A9D4B2046294608F02AFB78
:1007200042464B4608F02CFB32463B46BDE8F047BC
:1007300008F07FBA2DE9F0438BB001211F2001F0B2
:1007400026FC02278DF80470002401258DF8064050
:10075000DFF83C828DF8075003268DF80560694666
:100760004046009501F05CFA02220021404601F06B
:10077000CBFA8DF804508DF80640A8028DF807508A
:1007800000908DF805606946404601F049FA8DF801
:1007900004508DF806400620DFF8F8818DF80750E8
:1007A00000908DF805606946404601F039FA8DF8F1
:1007B00004508DF8064030208DF8075000908DF8D9
:1007C00005606946404601F02BFA8DF804508DF81B
:1007D0000640DFF8C4918DF807504FF480788DF80B
:1007E000056069464846CDF8008001F019FA8DF899
:1007F00004708DF806408DF807508DF80560694645
:100800004846009501F00CFA02220021484601F00A
:100810007BFA0121022001F0D8FB42F2CF00ADF8B3
:1008200008004E4EADF81040ADF80A4003958DF823
:10083000124002A9304601F0D9FE6020ADF8140044
:10084000ADF81650ADF82070ADF8248005A93046FB
:10085000079501F0B5FF0121304602F031FA01227F
:100860001146304602F04BFA0021304601F036FFC7
:100870000121084601F0A9FB40F21710ADF808006D
:100880004FF6FF700390ADF81040AE07ADF80A4088
:100890008DF8124002A9304601F0A8FE0121304631
:1008A00001F002FF0121304601F018FF0121042070
:1008B00001F08BFB72202A4EADF808400390ADF892
:1008C0001040ADF80A408DF8124002A9304601F000
:1008D0008DFE7021304602F050FA002202231146AC
:1008E000304602F085FA0F200790ADF8144005A9B4
:1008F000304601F0FDFE01220321304602F0FFF9EF
:100900000121304602F00CFA0121304601F0CCFE04
:100910001348243004600021304601F0DFFE4FF41C
:10092000A06001F031F81E208DF828008DF82940D4
:100930008DF82A408DF82B500AA801F02AF81D20C6
:100940008DF828008DF829508DF82A408DF82B500D
:100950000AA801F01EF80BB0BDE8F08300040040C7
:100960000008004000408F4038842A357BA0353F86
:100970008FC2F5285C8FDA3FCDCCCCCCCC4C3A4042
:10098000103D29931ADA903F32FE7DC6059A9540B4
:100990000004024000080240001002402DE9F0412E
:1009A000994AA0F203510024012560260227DFF8AE
:1009B0005C8288B0914206D29549B1FBF0F0401EAE
:1009C000ADF8000048E0A0F1810140F2814291427F
:1009D0001BD89049ADF80840B1FBF0F0401EADF8CF
:1009E000000013200190ADF802408DF80A406946DE
:1009F000404601F0FBFDADF80C60ADF80E50ADF8CF
:100A00001870ADF81C400A201FE080281FD84AF259
:100A10001041B1FBF0F0401EADF8000040F2CF7085
:100A20000190ADF80840ADF802408DF80A406946E3
:100A3000404601F0DBFDADF80C60ADF80E50ADF8AE
:100A40001870ADF81C404FF47A70059018E07249A8
:100A5000884215D9ADF80040ADF80840ADF8024025
:100A600001958DF80A406946404601F0BFFDADF89A
:100A70000C60ADF80E50ADF81870ADF81C4005953F
:100A800003A9404601F09CFE08B0BDE8F08110B516
:100A90000C46FFF783FF61485C4904700020243155
:100AA00008605A4824B10121BDE8104001F016BE8B
:100AB0000021F9E72DE9FE43594F0024DFF8649146
:100AC000C7E900440121484601F008FE00250DF168
:100AD0000808554E0AE00022CDE9005801231146CE
:100AE000104606F015FE641CC82C02D83078002889
:100AF000F1D035700021484601F0F0FD494824301E
:100B00000560D7E9000103B026E73EB500F038FDE7
:100B1000002000F02BFD0A214FF47A60FFF7B7FFA9
:100B2000002502ACCDE9005402232A462946284676
:100B300006F0EEFD0A2148F6B800FFF7A8FF0022F4
:100B4000CDE9005404231146104606F0E1FD0A21C8
:100B500040F6B830FFF79BFF0022CDE90054042394
:100B60001146104606F0D4FD0A2140F6C410FFF7E6
:100B70008EFF0022CDE9005404231146104606F0F2
:100B8000C7FD0A214FF4FA60FFF781FF0022CDE98B
:100B9000005408231146104606F0BAFD0A2140F21F
:100BA000DC50FFF774FF0022CDE900540823114602
:100BB000104606F0ADFD0A214FF47A70FFF767FF8B
:100BC0000022CDE900540C231146104606F0A0FD8A
:100BD0000A214FF4FA70FFF75AFF0022CDE90054C2
:100BE00014231146104606F093FD012000F0BEFCD0
:100BF0000022CDE9005414231146104606F088FD6A
:100C0000FFF758FF03B030BDFDB7010500040040F9
:100C100080DE80024016400000BD0105000000207B
:100C20001800002000080040080000209F2901D97A
:100C3000372200E0302202EB111201F00F010270A6
:100C4000092901D9373100E0303141707047F0B5E2
:100C500006464FF0FF300024524D0EE056F8242097
:100C6000002390EA020702D585EA400000E0400038
:100C700052005B1C202BF4D3641C8C42EED3F0BDDD
:100C800070B50C46054600F0D7FE21462846BDE863
:100C9000704000F0D9BE70B50C460546424E0BE0E0
:100CA00015F8011B304601F046FB4021304601F0AB
:100CB000D3FB0028F9D0641E002CF1D170BDF0B533
:100CC000ADF2145D05464FF41671AFA807F09AFF18
:100CD0004FF42F71684607F095FF4FF0FE374FF045
:100CE000AA360024AFA903E008556D1C641CA4B209
:100CF00028780028F8D104F1130C2146AFA8FFF79B
:100D0000A6FF0546FE208DF8000001208DF80100A9
:100D10004FEA1C618DF802104FEA1C418DF8031058
:100D20004FEA1C218DF804108DF805C08DF80600DF
:100D300006218DF8071000218DF808108DF80900A4
:100D40008DF80A10380E8DF80B00380C8DF80C0059
:100D5000380A8DF80D008DF80E70300E8DF80F00EA
:100D6000300C8DF81000300A8DF811008DF81260EB
:100D7000AFA90DF1130007F050FF0DEB04012A0E8F
:100D8000CA74280C0875280A48758D750D20C87519
:100D90000A20087604F119016846FFF77CFF0DF27E
:100DA000145DF0BDB71DC1040048004038B500F027
:100DB000CDFF012000F0E2FF02E000F0FCFF04465E
:100DC000012CFAD1002001F036F80720082100900C
:100DD00002234FF4A872C80401F01DF8012001F0AD
:100DE0002AF8314801688901FCD52F48083001688C
:100DF00021F003010160016841F002010160016816
:100E0000C1F381010229FAD1002001F044F84FF426
:100E1000A05001F048F8BDE838404FF4805001F090
:100E20004AB82DE9FF41002506463221009507F01A
:100E3000E9FE1E48002101AC0A5C6254491CC9B29B
:100E40000C29F9D300276846E15DFFF7EFFE6946FC
:100E5000304607F0E2FE7F1CFFB200950C2FF2D364
:100E6000BDE8FF8110B50121C80201F0AEF802F023
:100E70000FFF4FF4C07002F017FF7F2002F01BFF3E
:100E8000BDE81040412002F02BBF10B545F255508F
:100E900002F03EFF052002F03EFF642002F03EFF1C
:100EA000BDE8104002F042BF00380240107AFF1F38
:100EB00070B501218AB0880401F087F8012108206B
:100EC00001F065F800214FF4804001F088F8022518
:100ED0008DF8185000244FF440708DF81A4005909A
:100EE0008DF81B400320554E8DF8190005A930469A
:100EF00000F096FE07220821304600F005FF072289
:100F00000921304600F000FF4FF416500190ADF873
:100F10000C400C204A4EADF80840ADF80E00ADF87C
:100F20000A40ADF8104001A9304601F068F90122ED
:100F300040F22551304601F077FA0121304601F0A8
:100F4000D4F94021304601F08EFA280207908DF83E
:100F500022408DF8204008208DF8210007A800F0DD
:100F600099FD17208DF800008DF8015001268DF8AD
:100F700002608DF80340684600F00BFD27208DF8D5
:100F800000008DF801508DF802408DF8036068462E
:100F900000F0FFFC0AB070BD30B585B04FF4A06022
:100FA00000F0F2FC0121880301F019F800248DF80B
:100FB00004408DF806408DF8074003208DF80500A9
:100FC0004FF4007569461D48009500F029FE09217F
:100FD000032001F0B4F8029501258DF80E508DF82C
:100FE0000C4008208DF80D0002A800F053FD1720DA
:100FF0008DF8100002208DF811008DF812508DF838
:10100000135004A800F0C5FC05B030BD70B50C4C01
:1010100005464021204601F01FFA4021204601F0FC
:1010200022FAE9B2204601F086F94021204601F07B
:1010300013FA0028F9D0284670BD0000000C0240C9
:10104000004800402DE9F043012187B0084600F038
:101050009EFF4FF480590121484600F0C0FF022650
:101060008DF804600024E0208DF806400327DFF8A7
:10107000E08200908DF8057001258DF807506946D3
:10108000404600F0CDFD8DF8045028028DF8064052
:1010900000908DF805708DF807506946404600F0C5
:1010A000BFFD05221146404600F02EFE0522062116
:1010B000404600F029FE05220721404600F024FEAC
:1010C0000121484600F0BDFF0021484600F0B9FF6D
:1010D000ADF808404FF48270ADF80A00ADF810503A
:1010E0006802ADF812003820ADF81400ADF80C40DD
:1010F000ADF816400720974CADF81800ADF80E601B
:1011000002A9204601F0F6FE0121204601F081FFF0
:1011100007B0BDE8F08301468E48028822F038020D
:10112000028002880A430280012101F072BF70B57B
:10113000884C05460221204601F0FEFF0028F9D028
:101140002946204601F0CBFF0121204601F0F4FFA3
:101150000028F9D0204601F0C0FFC0B270BDFF20CA
:10116000E5E70EB5002002A9CDE900014FF4967322
:101170000246014606F0CCFAFFF7F1FF0EBD10B5AE
:10118000FFF760FF2020FFF7C6FFBDE810404FF4D7
:1011900080716F4800F0ABBD2DE9F05F00229046F2
:1011A000914616461746154600F0EAF9FFF7D9FFB3
:1011B0000446000623D4FFF7D2FF8346FFF7CFFF94
:1011C0008246FFF7CCFF00EB04614FEA0B4202EBD3
:1011D0000A20084460490840000907F0C9FE6FF082
:1011E000170207F0AEFE5D4A5D4B07F0C9FD6206CF
:1011F00003D500218846894601E006460F466D1C4E
:10120000EDB2042DD2D342464B463046394607F064
:10121000D1FE04D242464B463046394603E03246C0
:101220003B464046494607F0A5FD04460D460246AA
:101230000B464A484A4907F09DFD0022494B07F0FA
:1012400011FE02460B4620462946BDE8F05F07F036
:1012500009BE2DE9F04704460D460022424B07F037
:10126000A9FE28D20022414B2046294607F08EFED7
:1012700021D23F4E002233462046294607F07DFD0D
:101280003C4A3D4B07F07CFD3C4A3D4B07F075FD69
:1012900008F0BEFE3B4A3C4B07F06CFD4FF0FF32BE
:1012A00007F04FFE394A3A4B07F0DCFD0022334687
:1012B00007F0D8FD46E00022364B2046294607F0CD
:1012C00079FE41D20022344B2046294607F05EFECB
:1012D0003AD22046294608F0E3FC8046894620465B
:1012E000294608F0DDFC06460F462046294608F050
:1012F000D7FC2A4A2A4B07F043FD3B46324607F00B
:101300003FFD42464B4607F03BFD06460F46204652
:10131000294608F0C5FC234A234B07F031FD234A38
:10132000234B07F086FC32463B4607F082FC024620
:101330000B4600201F4907F095FD4FF033321E4B3E
:1013400007F018FD06460F4630463946BDE8F087DF
:101350000000024000300140F0FFFF0FF6285C8FD4
:10136000C2F513400024D34000001440000069403F
:1013700000005940B45208E412472EBF5B0E2DD72F
:101380003F8DC33F6CEC12D55B03D93F88CE19EE7D
:10139000AF60A3BE00406F40006AF8400E7007C205
:1013A000835A7B3E42823D810B0D2F3F23090CA3C4
:1013B0006A05573F0000F03F3313714010B501211B
:1013C00086B0080700F001FE012002F005FC0120B4
:1013D00000F012FD412000F0D7FC0028FAD04FF4B5
:1013E000807000F0B4FD012000F0C6FD01F0D6FED3
:1013F0007F200190FF20002402900094684601F0B5
:101400005BFF15208DF8130011208DF811000420CA
:101410008DF8120003208DF8100004A9012002F0BD
:1014200024F840208DF80F0016208DF80C0028209D
:101430008DF80D008DF80E4003A9012001F0A0FFEA
:1014400043F2F221002002F0F3FA06B010BD00B51D
:101450009FB0642104A807F0D5FB002002F0F0FA49
:10146000A0F54851F23902D0FFF7A8FF19E01DA9F5
:10147000002001F0D0FF1EA9002002F041F89DF8E5
:101480007A009DF876309DF875209DF874108DE8EF
:101490000F009DF879309DF87B2003A104A807F088
:1014A0002BFF04A81FB000BD25642F25642F2564E1
:1014B0002025643A25643A25640000002DE9FC41AA
:1014C00001211F2000F063FD01248DF80440002558
:1014D0008DF8065006204B4F8DF8074003260090EC
:1014E0008DF805606946384600F09AFB8DF8044097
:1014F0008DF80650A0028DF8074000908DF8056029
:101500006946414800F08CFB8DF804408DF8065088
:1015100030208DF8074000908DF805606946384608
:1015200000F07EFB8DF804408DF8065020028DF807
:10153000074000908DF805606946344800F070FB64
:10154000BDE8FC812F4A01284FF00201104601D06E
:1015500000F0CDBB00F0C9BB2A4A01284FF00401BE
:10156000104601D000F0C3BB00F0BFBB264A0128E3
:101570004FF48061104601D000F0B9BB00F0B5BB5C
:1015800010B5024621481F4C4FF48071092A38D209
:10159000DFE802F0372B05080B12151C1F0000F0C6
:1015A000A4FB24E000F0A3FB01E000F09EFB10216F
:1015B000204600F09AFB1EE000F099FB01E000F0ED
:1015C00094FB1021204600F092FB08E000F08FFB16
:1015D00001E000F08AFB1021204600F086FB204647
:1015E000BDE81040202100F080BB00F080FB1021FE
:1015F000204600F07CFB2046BDE81040202100F092
:1016000076BB10BD000802400004024000100240FA
:101610007047704964A300201A5C8A800A885206C9
:10162000FCD5401CC0B22A28F6D3FEE7FEE7FEE751
:10163000FEE77047704770472DE9F04102F0F4FD76
:10164000654F0121384601F06EFB0026FD04F0B124
:101650000121384601F073FB686A604CA06007F016
:1016600087FC02460B4600205D4907F0FBFBC4E9FE
:1016700004010021384601F031F857482430066053
:101680000021284601F02AF86E6201202070022114
:10169000384601F048FB40B10221384601F04FFBCB
:1016A00028466E62012101F019F8BDE8F04102F010
:1016B000C6BD10B502F0B8FD4A4C0121204601F02C
:1016C00032FB90B1454A5078401CC1B24648517037
:1016D0000378994205D1002151700170204600F035
:1016E000FDFF0121204601F02AFBBDE8104002F079
:1016F000A6BD10B502F098FD4FF40074204600F02E
:1017000019FA10B1204600F023FABDE8104002F0AB
:1017100096BD70B502F088FD344C2021204600F0C3
:101720009BFE70B32021204600F09DFE204600F075
:1017300006FE2A4A2E4B0125D1780024C0B2012989
:1017400001D081B128E091785854DE7A332E02D04E
:101750000B2906D001E00B2902D0491C91701BE037
:1017600015719470D470542804D043280AD053289B
:101770000FD010E0917802290DD19870D570032018
:1017800005E009E09178012905D158700220907098
:1017900002E0917821B19470BDE8704002F04FBD35
:1017A00018709570F8E700000D0A456E7465722098
:1017B000486172644661756C745F48616E646C6503
:1017C000722C2053797374656D2048616C742E0DF2
:1017D0000A0000000010014000080040080000203E
:1017E000389C7C410004004000000020004800407C
:1017F0008C2F00200CB500225149009201920868FC
:1018000040F4803008604FF4A043086800F40030D2
:1018100001900098401C0090019810B900989842DF
:10182000F3D10868800334D501200190444840304A
:10183000026842F0805202604248026842F440422C
:1018400002603F48083002680260026842F40042C9
:101850000260026842F4A0520260031F3A4A1A6012
:101860000A6842F080720A600A689201FCD5374922
:1018700040F205620A60016821F00301016001681D
:1018800041F0020101600168C1F381010229FAD12E
:101890000CBD01920CBD2A4810B5016841F0010150
:1018A0000160274A0021083211600268284B1A4063
:1018B0000260031D274A1A60026822F48022026037
:1018C0001F480C300160FFF795FF23494FF000607F
:1018D000086010BD70B51A4D083528681F4B2049A7
:1018E00010F00C0004D05E10042803D0082803D0A8
:1018F0000B601BE00E6019E0114A121D1068C0F366
:101900008054106800F03F0014B1B6FBF0F001E025
:10191000B3FBF0F013681268C3F388135843C2F3A3
:101920000142521C5200B0FBF2F0086028680C4AD9
:10193000C0F30310121D105C0A68C2400A6070BD3B
:10194000003802400070004008544007003C02404C
:10195000FFFFF6FE1030002408ED00E00024F40044
:10196000200000200648804706480047FEE7FEE7C3
:10197000FEE7FEE7FEE7FEE7FEE7FEE7FEE7FEE73F
:10198000971800088901000827490843274908607B
:10199000704770B50F23C278017801254FF0E0261B
:1019A000E2B1224A126802F4E062C2F5E062C2F3D8
:1019B0000722C2F10404D3404278A24084781C403C
:1019C0001B4B14432201CA54007800F01F018D40C4
:1019D000400906EB8000C0F8005170BD01F01F0007
:1019E0008540480906EB8000C0F8805170BD114A5F
:1019F000114001430D48001F016070470B4A121D42
:101A00000029116801D0014300E081431160704753
:101A10004FF0E0210428086903D020F00400086199
:101A2000704740F00400FAE70000FA050CED00E012
:101A300000E400E080FFFF1F0E490120886070472E
:101A40000C4908600868704710B50022094B03E094
:101A500050F822401C60521C8A42F9D3186810BD0D
:101A600004480068704703490871704701480079CD
:101A70007047000000300240374900200860091D0F
:101A80000860091D0860091D086033493348143196
:101A90000860704730B5304A8379016853B31368E2
:101AA0008B431360111D0B680468A3430B6001791D
:101AB00011440B68046823430B60274B08331968F3
:101AC0000468A14319601C1D21680568A9432160B1
:101AD0004179102905D011440A68006802430A6060
:101AE00030BD19680268114319602168006801431C
:101AF000216030BD0079104402688A43026030BD25
:101B00000021016001710C224271817170471249FC
:101B100010310A6802430A60704701460E4A0020ED
:101B2000143212680A4200D0012070470A49143169
:101B300008607047084A014600201268064B0A40B8
:101B400014331B680B4202D0002A00D001207047DA
:101B50000149143108607047003C0140FFFF7F00DD
:101B6000714910B5884206D10121084600F041FABA
:101B7000002101204FE06D49884206D10121022059
:101B800000F037FA0021022045E06949884206D179
:101B90000121042000F02DFA002104203BE06549DA
:101BA000884206D10121082000F023FA00210820F4
:101BB00031E06149884206D10121102000F019FA74
:101BC0000021102027E05D49884206D10121202014
:101BD00000F00FFA002120201DE05949884206D16B
:101BE0000121402000F005FA0021402013E0554972
:101BF000884206D10121802000F0FBF900218020DD
:101C000009E0514988420AD184150121204600F09B
:101C1000F0F900212046BDE8104000F0EAB910BDFF
:101C2000F0B5002201274FF0030C0B6807FA02F50C
:101C30002B40AB422CD1066853000CFA03F4A643A8
:101C400006600E79D0F800E09E4046EA0E06066077
:101C50000E79012E01D0022E12D18668A64386602D
:101C60004E79D0F808E09E4046EA0E068660466847
:101C7000AE43466045688E799640B6B235434560BE
:101C8000C568A543C560CC799C40C3681C43C4604B
:101C9000521C102AC9D3F0BD4FF6FF71016000211C
:101CA000017141718171C171704708B541F4803291
:101CB0000092C261C1610099C161C169C0690090AF
:101CC00008BD0246002012690A4200D00120704778
:101CD000006980B270470246002052690A4200D073
:101CE00001207047406980B270470183704741838B
:101CF00070470AB101837047418370474161704763
:101D000042694A40426170474B07DB0E9A40C9085E
:101D100010B500EB8100016A0F249C40A1430162D1
:101D2000016A1143016210BD00000240000402403C
:101D300000080240000C0240001002400014024063
:101D400000180240001C024000200240EA480168DE
:101D500041F001010160E84A002108321160026887
:101D6000E64B1A400260031DE54A1A60026822F43D
:101D700080220260E0480C3001607047DE4900229A
:101D8000891C0A7008707047024600205109012919
:101D90000CD002290CD0D8497431096802F01F0216
:101DA000012393400B4200D001207047D249F4E751
:101DB000D1497031F1E718B500204FF4A0440090EC
:101DC0003120FFF7E1FF0099491C0091A14201D0A9
:101DD0000028F5D03120FFF7D7FF002800D00120E0
:101DE00018BDC54A116821F0F80141EAC000106031
:101DF0007047C44908607047BF49002270310A70BB
:101E00000A70012802D0042801D10520087070470B
:101E1000BD490860704741EA82115A0810B5BB4BB2
:101E2000029C03EB02421143014341EA0460B249C0
:101E3000091D086010BDB34908667047800140EA7B
:101E40000170AD49843108607047AE4988667047BB
:101E5000AC49C8647047A84B08331A68084322F09D
:101E6000EC62104318607047A34B08331A680843AC
:101E700022F078421043186070479F4A0832116878
:101E800021F003010143116070479B48083000684E
:101E900000F00C007047984A0832116821F0F001F8
:101EA000014311607047944A0832116821F4E051EF
:101EB000014311607047904A0832116821F4604173
:101EC00041EAC0001060704770B58B4B0833196849
:101ED0008F4C11F00C0104D06610042903D008299E
:101EE00003D004601BE0066019E0834A121D1168EC
:101EF000C1F38055116801F03F0115B1B6FBF1F156
:101F000001E0B4FBF1F114681268C4F38814614372
:101F1000C2F30142521C5200B1FBF2F10160196898
:101F20000F2202EA11117B4A545C0168E1404160D2
:101F30001C68072505EA9424145D21FA04F48460E2
:101F40001B6805EA5333D25CD140C16070BDC0F359
:101F50000121032908D1684B083319686E4A21F41E
:101F6000F81102400A431A60634970310A68C0F3ED
:101F70000B0002430A6070476349443908607047A8
:101F800061494039086070476449086070475A4A9F
:101F900030320029116801D0014300E08143116013
:101FA0007047554A34320029116801D0014300E0DE
:101FB000814311607047504A38320029116801D0BE
:101FC000014300E08143116070474B4A40320029D1
:101FD000116801D0014300E0814311607047464A17
:101FE00044320029116801D0014300E081431160AF
:101FF0007047414A10320029116801D0014300E0C6
:102000008143116070473C4A14320029116801D0A5
:10201000014300E0814311607047374A18320029BC
:10202000116801D0014300E0814311607047324ADA
:1020300020320029116801D0014300E08143116082
:1020400070472D4A24320029116801D0014300E075
:10205000814311607047284A50320029116801D02D
:10206000014300E0814311607047234A5432002944
:10207000116801D0014300E08143116070471E4A9E
:1020800058320029116801D0014300E081431160FA
:102090007047194A60320029116801D0014300E0FD
:1020A000814311607047144A64320029116801D0DD
:1020B000014300E08143116070470F4A0D3200294F
:1020C000117801D0014300E08143117070470A4844
:1020D0007430016841F08071016070470146064A22
:1020E00000200C3212680A4200D0012070470249D9
:1020F0000E3108707047000000380240FFFFF6FE06
:102100001030002400004742800E47420000FFFFCD
:102110000024F40034000020FFFCFF0F5C01474264
:1021200010B501218C032046FFF78BFF2046BDE848
:1021300010400021FFF785BF11490860704710B5B6
:102140008A0721F00304120F0F230D499340083131
:1021500021440C689C430C600B68904003430B6067
:1021600010BD084908607047074908607047044976
:10217000002020310968C90500D501207047000002
:1021800000380140DC00274200042742CA4910B54C
:10219000884206D101211020FFF753FF00211020B3
:1021A00028E0C649884202D101214C0410E0C4490C
:1021B000884202D101218C040AE0C249884202D13E
:1021C0000121CC0404E0C04988420AD101210C0558
:1021D0002046FFF72CFF2046BDE810400021FFF706
:1021E00026BFBA49884209D101212020FFF729FFE3
:1021F00000212020BDE81040FFF723BF10BD7FB5B0
:102200000446008A0D46C98820F4405001432182CB
:10221000A08941F20C618843A9882A8911436A89FF
:1022200002431143A181A08A20F44071A889084388
:10223000A0826846FFF748FE9F48844202D0A34828
:10224000844201D1039800E00298A1890904002981
:1022500000EBC00101EB0010296802DA4FEA4101EE
:1022600001E04FEA8101B0FBF1F06422B0FBF2F132
:102270004FEA01114FEA11136FF018056B4300EBA1
:102280008300A3891D044FF0320306D503EBC00081
:10229000B0FBF2F000F0070005E003EB0010B0FB2C
:1022A000F2F000F00F00084320817FBD4FF416517B
:1022B000016000218180C18001810C2242818181E5
:1022C000704710B5028A4C8822F470630A88224352
:1022D0008C88C9880C4322431A43028210BD002116
:1022E000018041808180C18070470029818902D0AE
:1022F00041F4005101E021F4005181817047028BCB
:1023000002F47F420283028B0A4302837047002952
:10231000818902D041F4004101E0C1F30E018181C5
:1023200070470029818A02D041F4006101E021F464
:10233000006181827047C1F3080181807047808805
:10234000C0F308007047028A22F00F020282028A5C
:102350000A43028270470029818902D041F00201BC
:1023600001E021F0020181817047828922F400623C
:10237000828182890A4382817047028A22F0200288
:102380000282028A0A43028270470029018A02D02F
:1023900041F4804101E021F480410182704781894C
:1023A00041F00101818170470029818A02D041F00A
:1023B000080101E021F0080181827047028BD2B24E
:1023C0000283028B42EA0121018370470029818A3E
:1023D00002D041F0200101E021F02001818270470C
:1023E0000029818A02D041F0100101E021F01001A2
:1023F00081827047828A22F004028282828A0A43A2
:10240000828270470029818A02D041F0020101E0F6
:1024100021F0020181827047002A828A01D00A439A
:1024200000E08A438282704710B5C1F3421301F085
:102430001F040121A140012B07D0022B07D014302B
:10244000002A026805D00A4304E00C30F8E7103097
:10245000F6E78A43026010BD0246002012880A4255
:1024600000D001207047C9430180704770B501F06A
:102470001F0501260024C1F3421306FA05F2012BC1
:102480000FD0022B0FD0838A4FEA1121008813420C
:1024900006FA01F600EA060001D000B10124204648
:1024A00070BD8389F0E7038AEEE70A0A01219140B3
:1024B000C943018070470000001001400044004003
:1024C00000480040004C0040005000400014014013
:1024D000FE4910B5884206D101210846FFF7B1FD3B
:1024E000002101205BE0B0F1804F09D0F84988421B
:1024F0000DD101210220FFF79AFD0021022070E09A
:1025000001210846FFF793FD0021012069E0F14910
:10251000884206D101210420FFF789FD0021042013
:102520005FE0ED49884206D101210820FFF77FFDD9
:102530000021082055E0E949884206D101211020F8
:10254000FFF775FD002110204BE0E549884206D1D8
:1025500001212020FFF76BFD0021202041E0E1490F
:10256000884206D101210220FFF76BFD00210220E5
:1025700015E0DD49884202D101210C040AE0DB4963
:10258000884202D101214C0404E0D94988420AD191
:1025900001218C042046FFF754FD00212046BDE8B0
:1025A0001040FFF74EBDD349884206D1012140209B
:1025B000FFF73DFD0021402013E0CF49884206D1BE
:1025C00001218020FFF733FD0021802009E0CB4965
:1025D00088420AD1841501212046FFF728FD0021F9
:1025E0002046BDE81040FFF722BD10BD30B502887F
:1025F000B64CBC4DA0420DD0A8420BD0B0F1804FDC
:1026000008D0B34B984205D0B24B984202D0B24B9F
:10261000984203D122F070034A881A43AF4B984284
:1026200006D0AF4B984203D022F440730A891A4374
:1026300002804A68C2620A880285A04201D0A8428C
:1026400001D1897A01860121818230BD4FF0FF31AD
:1026500041600021018001814180817270470185C4
:1026600082827047028822F070020A43028070471B
:1026700041627047C1627047406A7047008D704781
:102680000029018802D041F0020101E021F002019D
:10269000018070470029018802D041F0040101E067
:1026A00021F00401018070470029018802D041F027
:1026B000800101E021F0800101807047028822F052
:1026C0000802028002880A4302807047028822F4CE
:1026D0004072028002880A43028070470029018804
:1026E00002D041F0010101E021F0010101807047B9
:1026F00030B5028C22F001020284028C8388048BA4
:1027000022F0020224F073050C882C438D891543B6
:102710004A882A436D4DA84202D0724DA8420DD17D
:1027200022F00805CA8923F440732A4322F00405E5
:102730008A882A430D8A1D434B8A2B438380048356
:1027400089684163028430BD70B5028C22F01002AA
:102750000284028C8388048B0D8824F4E6464FF6AD
:10276000FF7404EA052535438E8922F0200204EA2D
:10277000061616434A8804EA02123243534EB04208
:1027800002D0584EB04215D122F08006CA8923F4F7
:10279000406304EA0212324322F040068A8804EAC7
:1027A000021232430E8A04EA86061E434B8A04EA6A
:1027B000830333438380058389688163028470BD0A
:1027C00070B5028C22F480720284028C8388848B20
:1027D0000D8824F0730425438E894FF6FF7422F48C
:1027E000007204EA062616434A8804EA02223243AB
:1027F000364EB04202D03B4EB04215D122F40066B4
:10280000CA8923F4405304EA0222324322F4806648
:102810008A8804EA022232430E8A04EA06161E431C
:102820004B8A04EA03133343838085838968C16339
:10283000028470BD70B5028C22F480520284058C33
:102840008288838B0C8823F4E6464FF6FF7303EAF5
:102850000424344325F400568D8903EA05353543B5
:102860004E8803EA06362E43184DA84202D01D4D6D
:10287000A84205D122F480450A8A03EA82122A433B
:102880008280848389680164068470BD0021018090
:102890004180818081608181C18101824182704754
:1028A00030B50124058C00F118038C40A543058444
:1028B00031B308292CD0091FC1F34E001844016818
:1028C00048F6FF731940016001681AE000000140FA
:1028D0000004004000080040000C004000100040D0
:1028E0000014004000040140004001400044014049
:1028F0000048014000180040001C0040002000403B
:1029000006E04FF6FF7303EA02221143016030BD77
:1029100003EB510001684FF68F73194001600168A5
:10292000F3E74163704781637047C1637047016497
:102930007047028B22F070020A4302837047028BB9
:102940004FF6FF7322F4E04203EA012111430183B1
:102950007047828B22F070020A4382837047828B19
:102960004FF6FF7322F4E04203EA01211143818311
:102970007047028B22F008020A4302837047028BE1
:102980004FF6FF7322F4006203EA01211143018331
:102990007047828B22F008020A4382837047828B41
:1029A0004FF6FF7322F4006203EA01211143818391
:1029B0007047028B22F004020A4302837047028BA5
:1029C0004FF6FF7322F4806203EA01211143018371
:1029D0007047828B22F004020A4382837047828B05
:1029E0004FF6FF7322F4806203EA012111438183D1
:1029F0007047028B22F080020A4302837047028BE9
:102A00004FF6FF73C2F30E0203EA01211143018363
:102A10007047828B22F080020A4382837047828B48
:102A20004FF6FF73C2F30E0203EA012111438183C3
:102A30007047028C22F002020A4302847047028C23
:102A400022F008020A4302847047028C4FF6FF739B
:102A500022F0200203EA0111114301847047028C25
:102A60004FF6FF7322F0800203EA01111143018443
:102A70007047028C4FF6FF7322F4007203EA0121C3
:102A8000114301847047028C4FF6FF7322F40062F9
:102A900003EA0121114301847047028C4FF6FF7352
:102AA00022F4005203EA013111430184704710B54A
:102AB0000123048C8B409C430484038C8A40134381
:102AC000038410BD10B50423048C8B409C43048404
:102AD000038C8A401343038410BD828B22F440622E
:102AE0008283828B4FF6FF7303EA01210A438283BC
:102AF0007047828B22F00C028283828B0A4382838E
:102B00007047028B22F440620283028B4FF6FF7300
:102B100003EA01210A4302837047F0B5048C24F0D4
:102B200010040484078B068C4FF6FF7404EA011529
:102B300027F4734704EA0331394304EA02220A43C3
:102B400026F0A001294341F0100102830184F0BD69
:102B5000028B22F00C020283028B0A43028370472D
:102B60002DE9F0410C460E884988A2882389054644
:102B70000EB3042E26D0082E2E8C4FF6FF7028D0D0
:102B800026F480562E84AF8B2E8C00EA022200EAB7
:102B9000013127F473473A4300EA0330104326F427
:102BA00020420A4342F48051A8832984E1882846C0
:102BB000BDE8F04191E700F062F9E1882846BDE800
:102BC000F041C5E7FFF7A9FFE1882846BDE8F041DD
:102BD00097E726F480762E84AF8B2E8C00EA0121B5
:102BE00000EA0310104327F0F307384326F420626D
:102BF0000A4342F48071A8832984E1882846BDE80D
:102C0000F04176E700210180418001228280C1806D
:102C1000018170472DE9F0410C460026498807469E
:102C2000012501B90226A288012A00D102252088A7
:102C300023890028384610D0FFF76FFFE188384617
:102C4000FFF75FFF23892A463146384600F017F91F
:102C5000E1883846BDE8F0417AE700F010F9E188F4
:102C60003846FFF775FF23892A4631463846FFF775
:102C700054FFE1883846BDE8F04142E7406B7047B9
:102C8000806B7047C06B7047006C704710B50A8846
:102C90004B88CC881A438B8823431A430B891A43E9
:102CA0004B8989891A430A43A0F8442010BD0021AA
:102CB000018041808180C180018141818181704793
:102CC000002930F8441F02D041F4004101E0C1F373
:102CD0000E01018070470029818802D041F0040173
:102CE00001E021F00401818070470029818802D031
:102CF00041F0010101E021F0010181807047002ACB
:102D0000828901D00A4300E08A4382817047818230
:102D1000704702460020128A0A4200D00120704704
:102D2000C9430182704702460020138A92890B42F0
:102D300002EA010202D0002A00D001207047C943F4
:102D4000018270471143A0F848107047002A828919
:102D500001D00A4300E08A438281704700298188BC
:102D600002D041F0080101E021F0080181807047A4
:102D7000018921F0070101817047028922F0700268
:102D80000A430281704700B50346FFF7F6FF188932
:102D900040F00700188100BD70B516460D46602949
:102DA00004464FF0010231460AD000F068F8294687
:102DB0002046FFF7E2FF208940F00700208170BD28
:102DC000FFF7ABFEF3E730B504894FF6FF7505EA70
:102DD00003231343E4B20B432343038130BD10B5F7
:102DE0000446FFF7F0FF208940F07700208110BDF6
:102DF00010B50446FFF7E7FF208940F480402081AA
:102E000010BD828822F07002828082880A4382800C
:102E10007047028922F00702028102890A43028177
:102E20007047028922F08002028102890A430281EE
:102E3000704770B50589048B068C25F007050D4396
:102E40004FF6FC410C4040F201110C434FF6FF716C
:102E500001EA031126F02206114331430581048360
:102E6000018470BD0029818802D041F0800101E019
:102E700021F0800181807047A0F85010704770B534
:102E8000048C24F001040484058B048C4FF6FF7637
:102E900006EA0313134325F0F3052B4324F00A023B
:102EA0000A4342F001010383018470BDB64910B5A5
:102EB00088420AD1841401212046FFF7C2F8204637
:102EC000BDE810400021FFF7BCB8B049884202D1EC
:102ED0000121041404E0AE4988420AD10121C4133F
:102EE0002046FFF7A4F82046BDE810400021FFF778
:102EF0009EB810BD30B502884C8802F441530A8850
:102F0000CD8822438C882C4322430C8922434C8950
:102F100022438C892243CC8922431A430280828B2C
:102F200022F400628283098A018230BDF0B5022258
:102F30000023858B01244FF24006354085830284AF
:102F4000858B8E68022E38D08A8802B10224914A7D
:102F500013681B0203D5136823F4000313608D4A22
:102F60007C3213681268C3F388138A4EC2F302726C
:102F7000361F3668884F06F03F06B7FBF6F65E430D
:102F8000B6FBF2F2CB88B3F5007F2BD06301B2FB26
:102F9000F3F202EB82028B685200B2FBF3F2521D95
:102FA00092B20A23B2FBF3F202F00103D21A4FF6F7
:102FB000FF74C2F34F0204EA0323941EFE2C01D3D4
:102FC00002220023CC881A43144304840A884B88C5
:102FD0001A438B8889890B431A432A4342F40061C0
:102FE0008183F0BD120AD4E70021018041808180F5
:102FF000C180018141818181C181072101827047A6
:103000000021018041808180C18002228260818113
:1030100070470029018802D041F0400101E021F011
:103020004001018070470029818B02D041F480610A
:1030300001E021F4806181837047028822F40062FC
:10304000028002880A4302807047B1F5804F0188F0
:1030500003D021F480410180704741F48041FAE7B8
:10306000A1F57E420188FF3A02D041F4807101E06F
:1030700021F48071018070470029818802D041F0DD
:10308000040101E021F0040181807047002981885A
:1030900002D041F0100101E021F010018180704761
:1030A00030B5828B00234FF24004224082830222FB
:1030B0000284848B0A884FF48075B2F5007F00D0BB
:1030C00002B92B464A888D8889892A4319430A43C5
:1030D000224342F40061818330BD80897047818141
:1030E00070470029018802D041F4005101E021F429
:1030F000005101807047018841F480510180704780
:10310000012901D0008B7047808A7047008A704780
:10311000002A828801D00A4300E08A4382807047F7
:10312000090901238B40002A828899B201D00A4301
:1031300000E08A43828070470246002012890A42DA
:1031400000D001207047C9430181704730B501F0BC
:103150000F030125024605FA03F40020A3B2090972
:1031600005FA01F49188A4B2128921401A4202D0D2
:10317000002900D0012030BD01F00F020121914053
:10318000C943018170470000003001400038004011
:10319000003C00400838024000127A0018B50020B8
:1031A000FC4B0090CA20186053201860F949183968
:1031B000086820F0A00008604FF400340868009A06
:1031C00000F02000521C0092A24201D00028F5D04D
:1031D0000868800601D5012000E00020FF21196069
:1031E00018BD08B5EB490020183900900868400662
:1031F00012D44FF0FF3008608B130868009A00F07B
:103200004000521C00929A4201D00028F5D0086874
:10321000400601D4002008BD012008BD78B5002576
:10322000DC4ECA2000952C46306053203060FFF7FA
:10323000D8FFA0B3D74824380560D64942F2011020
:10324000203908600B1D186800F0070018608C1307
:10325000191D0868009A00F00400521C0092A24256
:1032600001D00028F5D0086840071CD518681D60FB
:10327000C84A4FF6FF70103A1060121FC64810601F
:10328000C4480C380560001D0560001D05600D6018
:10329000C0481C300560FFF781FF20B10124FF20EA
:1032A0003060204678BD0024F9E7BA481838016834
:1032B00021F080010160704770B5B64E04460025CC
:1032C000CA20306053203060FFF78BFFA8B1B148AF
:1032D0001C38016821F04001016001682268114337
:1032E0000160AC48A168143801600168A28841EA15
:1032F00002410160FFF7D9FF0125FF203060284619
:1033000070BD002101607F214160FF218160704715
:10331000A04908B1FF2002E0CA20086053200860DD
:10332000704770B59B4E05460024CA20306053207C
:103330003060FFF756FF60B196481C38016815B140
:1033400041F0100101E021F010010160FFF7ADFF35
:103350000124FF203060204670BD8E4ACA211160D2
:10336000532111608B491C390028086802D040F0B5
:10337000200001E000F0DF000860FF2010607047CF
:1033800070B50C460026854B01002078196832463E
:103390004FEA416104D000292BDA00F004FC29E057
:1033A000002900DBE27000F0F2FB0504607800F019
:1033B000EEFB45EA0025A07800F0E9FB0543E07844
:1033C00045EA0045734CCA20206053202060FFF777
:1033D00008FF50B172480540704808380560FFF793
:1033E00064FFFFF7DBFE00B10126FF2020603046BE
:1033F00070BDE270A078217840EA01456078E178FC
:10340000000240EA01400543DCE70021C170017081
:10341000417081707047020010B562480C46016827
:103420005F4801EA0001C1F305402070C1F30623A3
:10343000637001F07F03A3704FF0400303EA114172
:10344000E1700AD100F0AFFB2070607800F0ABFBB8
:103450006070A07800F0A7FBA07010BD4D48001D63
:1034600000684E49091F0968704770B50C46002670
:103470000100607810D000F096FBA07800F093FB7C
:10348000A078E17840EA0145607821784FEA002091
:1034900040EA4130054315E0C10603D520F0100095
:1034A0000A306070E07800F072FB0504607800F08C
:1034B0006EFB45EA0025A07800F069FB0543207803
:1034C00045EA4035334CCA20206053202060FFF786
:1034D00088FE50B1344805403048001F0560FFF7B2
:1034E000E4FEFFF75BFE00B10126FF2020603046BE
:1034F00070BD01210170817041700021C170704761
:10350000020010B529480C460168274801EA00016D
:103510004FEA1140E070C1F30423637001F03F03F0
:10352000A370C1F3423121700AD100F03CFBE0707E
:10353000607800F038FB6070A07800F034FBA07079
:1035400010BD70B514460D46144A002100281068BD
:103550004FEA406005D000282ADA207800F023FBEB
:1035600027E0002800DBE170207800F010FB060463
:10357000607800F00CFB46EA0026A07800F007FB1C
:103580000643E07846EA0046207B00F000FB46EA6E
:1035900000601EE024280040FF007F000828004053
:1035A0007F7F7F00002800403FFFFF00042800408D
:1035B000E170207B00F0F7FAA0782178E27840EA09
:1035C00001406178090241EA02410843217B40EA57
:1035D0000160A168084361680843F949CA220A608A
:1035E00053220A60B5F5807F04D00A1F1060FF20C7
:1035F000086070BDF24A083AF8E70021C170017016
:10360000417081700122816002734160704710B582
:1036100014460246B1F5807F2AD0E948001F0168B0
:10362000C1F305402070C1F30623637001F07F03EE
:10363000A370402303EA1143E370C1F305632373CE
:1036400001F0804301F08031C4E90113002A0ED15A
:1036500000F0A9FA2070607800F0A5FA6070A078F8
:1036600000F0A1FAA070207B00F09DFA207310BD3D
:10367000D3480838D3E738B50022D14C0092CA228B
:10368000226053222260CE4A1C3A0029116802D0DF
:103690000143116012E081431160C94A183A951341
:1036A0001168009B01EA10215B1C0093AB4201D022
:1036B0000029F5D0116811EA102000D00120FF2167
:1036C000216038BD10B5BE4BCA241C6053241C6059
:1036D0001143B0F5807F05D0B94824300160FF2048
:1036E000186010BDB6482030F8E7B0F5807F05D0EF
:1036F000B34824300068C0F30E007047B048203053
:10370000F8E7AF4ACA21116053211160AC491C3956
:103710000B6823F007030B600B6803430B60FF206B
:1037200010607047A649CA220A6053220A60A44A60
:10373000103A1060FF2008607047A14810380068F8
:1037400080B2704718B500219D4B0091CA211960C5
:10375000532119609A491C390028086803D040F4A5
:103760008060086014E020F4806008609449183993
:103770008C130868009A00F00400521C0092A242C8
:1037800001D00028F5D00868400701D4002000E0EF
:103790000120FF21196018BD894B10B5CA221A609B
:1037A00053221A60864A1C3A146824F48024146058
:1037B0001468084304431460FF20186010BD80485B
:1037C0001C38006800F4802070477D4B10B5CA2279
:1037D0001A6053221A607A4A1C3A146824F4E004EE
:1037E00014601468084304431460FF20186010BD7F
:1037F000F0B5734D06460024CA200F4628605320BA
:103800002860FFF7EEFC30B16D483E430C3806608F
:10381000FFF74BFD0124FF2028602046F0BD70B566
:10382000674E05460024CA20306053203060FFF701
:10383000D8FC60B162481C38016815B141F08001C4
:1038400001E021F080010160FFF72FFD0124FF203E
:103850003060204670BD5A4ACA2111605321116060
:1038600057491C390028086802D040F4000001E0E4
:1038700020F400000860FF2010607047504ACA2101
:103880001160532111604E491C390B6823F4002349
:103890000B600B6803430B60FF2010607047F0B5AE
:1038A000474D0023CA242C6053242C60444C183C00
:1038B0002668F60309D54FF400362768FF0304D5C0
:1038C000B34202D003F10103F7E72368DB0306D418
:1038D00008433B49104318310860012000E00020F4
:1038E000FF212960F0BD364B10B51C3B1A6840F62D
:1038F0000804A24342EA000209B142F400623048DF
:10390000CA210160532101601A60FF21016010BDCE
:1039100070B50D462A4914460C310968294A1140F0
:10392000274A103212684FF63F731A40C1F305431D
:103930002B70C1F306236B7001F07F03AB70402343
:1039400003EA1141E9700021E170C2F304216170C2
:1039500002F03F01A170C2F342312170002817D15B
:10396000287800F020F92870687800F01CF9687059
:10397000A87800F018F9A870607800F014F9607069
:10398000A07800F010F9A070207800F00CF92070F9
:1039900070BD0B48143000687047094A1C3200297A
:1039A000116803D041EA40001060704721EA4000EE
:1039B000FAE7034A1C320029116805D0014304E0EC
:1039C000242800407F7F7F008143116070477A493F
:1039D0000A6822F4C0520A600A6802430A6070470B
:1039E00075490A6822F4E0620A600A6802430A60C4
:1039F000704771490A6822F4C0420A600A680243AB
:103A00000A6070476C490028086802D040F08000C6
:103A100001E020F0800008607047674900280868CE
:103A200002D020F4004001E040F4004008607047FC
:103A3000614A08B5103202EB80000090016008BDB9
:103A40005D4908B5103101EB80000090006808BDA9
:103A500059490A6822F480320A600A6802430A60FF
:103A6000704755490A6822F400320A600A68024326
:103A70000A60704750490A6822F480220A600A6886
:103A800002430A60704770B54B4C0022CA231C3CAD
:103A9000236053232360484B343B1D682D0708D512
:103AA0009E141D682D0704D5B24202D002F1010216
:103AB000F7E71A6812070DD43F4A383A1268D2065F
:103AC00008D401433C4814380160FFF767FB10B18C
:103AD000012000E00020FF21216070BD30B5364D8F
:103AE000CA221C3D2A6053222A60334C20F0040273
:103AF000383C0029304B216800F0040004D0114309
:103B000021601968014303E09143216019688143F2
:103B10001960FF20286030BD024627490020343953
:103B2000096843F677731940114200D001207047AD
:103B300080B240F08000C1431F483438026802F070
:103B400080021143016070471B4A0021126802F095
:103B50000403194A383A126803EAD03302401A4380
:103B6000164B1B6803EA101003D00004000C00D0B1
:103B7000012108467047C0F30F1040F08000C14398
:103B80000E48026802F08002114301607047002174
:103B900003E0491C0A38C9B2C0B20A28F9D20907A1
:103BA00040EA11607047010901EB810100F00F004C
:103BB00000EB4100C0B27047402800400C28004094
:103BC00010B501210C072046FEF731FA2046BDE86A
:103BD00010400021FEF72BBA2A49086270472A4A92
:103BE000116821F0E0010143116070472549086127
:103BF00070472449A031086070472249A431086009
:103C0000704721490028086803D040F480400860CC
:103C1000704720F48040FAE71A49486270471A4B0F
:103C20001A6822F0030202431A601848026842F040
:103C300004020260012905D020BF016821F00401BF
:103C40000160704730BFF8E70F48016841F0040198
:103C50000160016841F0020101600C48016841F017
:103C60000401016030BF7047074A014600205268D6
:103C70000A4200D00120704703490A6842EA8000E6
:103C80000860704700000E420070004010ED00E038
:103C900010B50121CC022046FEF7C9F92046BDE847
:103CA00010400021FEF7C3B9174A116821F4C07112
:103CB000014311607047144908B50A6800F07F009D
:103CC00022F07F0210430090086008BD0F490120D8
:103CD000086070470C4900F07F00091F08607047BA
:103CE000094940F08000091F08607047064900201C
:103CF000091D0968002900D00120704702490020F1
:103D0000091D086070470000042C0040A480054293
:103D10000D49086070470C49486070470A4988603F
:103D2000704709494AF6AA200860704706494CF6D0
:103D3000CC4008607047044A01460020D2680A421D
:103D400000D00120704700000030004072B670477C
:103D500062B67047EFF3108072B6704780F3108838
:103D6000704730BF704720BF7047B0FA80F070478F
:103D700090FAA0F0B0FA80F0704790FAA0F0704787
:103D800010B5FFF7E7FF044610216A4803F0B8FEBC
:103D90002046BDE81040FFF7E1BF674910B500209D
:103DA0000860FCF71FFABDE81040E9E7FEE770B5D0
:103DB00005460C000ED075B1FFF7CCFF0646102269
:103DC0005C49284604F026FC3046FFF7C7FF002078
:103DD000208070BDFEE70A20088070BD70B50C0021
:103DE000054612D095B1102104F006FC102810D21F
:103DF000FFF7B0FF0646102229464E4804F00AFCA1
:103E00003046FFF7ABFF002005E0FEE70A20088000
:103E100070BD4FF47A70208070BDFCF7F6B9704722
:103E2000020004D04448006810B1002102E0FEE71F
:103E30004FF4FA61118070473F490860704710B530
:103E4000FFF793FF183810BD10B5FFF78EFF10383D
:103E500010BDFFF78ABFF0B54FF0FF370C0E0B0C0B
:103E60000D0A0026354A3F1A8E411CD24FF0FF370B
:103E70003E0C3F1A8E410AD24FF0FF36350A301AF7
:103E80008D4101D2105DF0BDD05C0830F0BD4FF027
:103E9000FF34FF23201A8B4102D2505D1030F0BD59
:103EA000505C1830F0BD4FF6FF740023241A8B418C
:103EB00011D26FF07F440023241A8B4105D2000EEB
:103EC00040EA0120105C2030F0BD000C40EA0140C7
:103ED000105C2830F0BDFF240023241A8B4105D24A
:103EE000000A40EA0160105C3030F0BD105C3830F0
:103EF000F0BD08B1FFF73CBF0820704708B1FFF7DD
:103F000037BF1020704708B1FFF732BF202070473D
:103F100000B550EA010201D1402000BDC243521C4D
:103F2000CB4343F1000310401940FFF794FFC0F169
:103F30003F0000BDA02F0020440000201EA200086A
:103F40004B480068002800D00047704749484A495C
:103F50000068096800EB8100484920F0070008600C
:103F6000704747480068002800D00047704745491F
:103F70000968002900D008477047434909680029AB
:103F800000D00847704741490968002900D0084718
:103F9000704710B5029C02EB840222F007024FF03A
:103FA000807442E902043A4842F80C0DA2F1300054
:103FB0004FF012344FF00332C0E90A244FF00232BE
:103FC0004262C0E907134FF011318161D1004161B4
:103FD000611001619100C1604FF0073181604FF0C5
:103FE000063141604FF0053140F80419510001607D
:103FF00010BD284810B5006800B18047FCF705F9EE
:104000002549264A09681268914206D094314B68C6
:10401000C31A0B608C6823448B60C2F8980010BDF3
:104020001F480068002800D00047704710B5FFF710
:1040300091FE1C4A1178491C1170FFF78FFE03F0A6
:1040400051FCBDE8104000F0FAB84FF0E021401EEE
:104050004861154A106820F07F401060086940F000
:1040600005000861086940F002000861704700001F
:10407000600000202CA3000830A3000848000020A6
:104080006400002054000020580000205C00002044
:104090005973000868000020D8000020DC000020D0
:1040A0006C0000207400002020ED00E0704700004C
:1040B000FD4CFE4DFFF74EFE2168491C216029682A
:1040C000491C2960FFF74AFEFFF73AFFF2E700B507
:1040D000F54A89B0002111600B2205910691CDE9C6
:1040E0000720F348F34AF44B006812681B680292F9
:1040F000CDE903013F20CDE900030023AFF24F02D9
:10410000EEA1F34802F0BFFB09B000BD0020F14B67
:10411000024600EB400103EB8101401C0A810A606A
:10412000C0B24A604028F4D3704710B50446FFF788
:104130000DFFE94800220A210270E8480270E848B1
:104140000270E8480260E8480260E8480270E84807
:104150000270E8480270E8480270E8480068B0FB66
:10416000F1F0E7490860E749086830B1E6480068BF
:1041700018B1096804C0491EFCD1E4480260E44853
:104180000260E4480260E4480260E4480260E448F7
:104190000260E4480260E448027001F0D9FBFFF7D6
:1041A000B5FF204600F098FF208800283BD120462C
:1041B00001F03FF82088002835D1204601F048F86A
:1041C000208800282FD1204601F0AEFB208800284F
:1041D00029D1204601F06EFE2088002823D12046F8
:1041E00002F0C4F8208800281DD1204603F09AF878
:1041F0002088002817D12046FFF769FF2088002873
:1042000011D1204603F077F9208800280BD12046F1
:1042100002F00AFA2088002805D100F03FFCBDE832
:104220001040FFF743BF10BDAC480078012805D10E
:10423000A9490878FA2801D2401C08707047A7489D
:1042400010B5007801282BD1FFF784FDA249044660
:10425000087800B3401E10F0FF0008701BD1A04882
:104260000078C0B901F07DFBA1490870994900EBC5
:10427000400051F820009C4908609A49096888422A
:1042800009D050F8901F491C0160A8480168491CDA
:10429000016004F0EBFF2046BDE81040FFF75EBD73
:1042A00010BD8D4810B50078002824D18C480078C6
:1042B000002820D1FFF74EFD044601F052FB8C4947
:1042C0000870844900EB400051F8200086490860DE
:1042D00084490968884209D050F8901F491C016040
:1042E00092480168491C016004F0BBFF2046BDE80C
:1042F0001040FFF733BD10BD70B504467648007816
:1043000010B146F6625015E074480078012802D0DA
:1043100045F689600EE0724D2878FA2802D345F2FE
:10432000092007E0FFF716FD2978491C2970FFF7DF
:1043300015FD0020208070BD70B5044666480078E9
:1043400010B146F665501EE064480078012802D09E
:1043500045F6896017E0624D287860B1FFF7FAFCF6
:104360002978491E11F0FF01297007D0FFF7F6FCEC
:1043700046F6635007E046F6645004E0FFF7EEFCB3
:10438000FFF78FFF0020208070BD2DE9F041164619
:104390000C460746FFF7DEFC57490025012F01D0E8
:1043A0000D7001E001220A7055490CB10C6005E066
:1043B000524A0A231268B2FBF3F20A60FFF7CEFCFE
:1043C0003580BDE8F08110B50189002914D001299C
:1043D00012D00024022907D0D0E90013CA68146162
:1043E000C1E90343D96005E0D0E90012C1E9034205
:1043F000C2E90314C0E9002110BD70B50446364877
:10440000007810B148F2D1402EE03548007810B164
:1044100046F6635028E038480078012802D046F676
:104420007B1021E0FFF796FC0646304829490078CA
:1044300000EB400001EB80052889022805D23046B8
:10444000FFF78CFC46F67A100EE02846FFF7BBFF1C
:104450002868416D09B92A49096881653046FFF726
:104460007DFCFFF71EFF0020208070BD70B51B4D46
:104470000446287818B145F68A60208070BD01F0A6
:1044800070FA1B49087019490870124900EB400086
:1044900051F8200014490860124908600120287072
:1044A00004F0CEFE44E0000070000020B0000020C8
:1044B00028A3000824A3000820A3000875432F4F59
:1044C000532D4949492049646C65205461736B0040
:1044D000704000203C410020740000207500002046
:1044E0009A000020D8000020DC0000208E00002070
:1044F0008F00002090000020A000002054A300089E
:104500009C00002030A300082CA3000854000020C9
:10451000580000205C0000206000002064000020A3
:10452000680000206C000020CE000020C4000020A5
:1045300043F69920A1E70021018047F25D607047B2
:1045400038B14268C1F8BC2081688968096AC161D4
:10455000704791F83400022803D0072803D0FDA04B
:1045600002E0FDA000E0FEA0C1F8BC00704730B53D
:104570008A68002592F8374002891AB1521C0281DC
:1045800002680BE0012202814D600D60016014E0C1
:10459000936893F83730A34203D85268002AF7D1C2
:1045A00007E032B1136853B1C1E9003259601160BC
:1045B00030BD4D6042680A605160416030BD11609D
:1045C000C1E90052016030BD10B5C2870024234606
:1045D000016309E04B600B600B614B610B83CB61A6
:1045E00088602031641CA4B29442F3D310BD70B52E
:1045F000044690F83700DD4900EB400001EB8001F4
:10460000D4E90320002540B10B895B1E0B81C260F9
:1046100092B110612561E56070BD2AB10889401E24
:10462000088115610A60F5E70D810D604D6094F811
:10463000370001F0B4F9EDE74860EBE738B5044620
:10464000022531B16B46022202F08EFFBDF8000058
:1046500028B184F836502046FFF7C9FF38BD032043
:1046600084F83600F7E72DE9F041C14D07460C46C6
:1046700028680026194680F8342080F83560FFF756
:10468000DDFF64B1FC6004F10806012239462868A8
:10469000FFF79AFF39463046FFF769FF02E02868C6
:1046A000C687066320462968BDE8F04148E710B593
:1046B00002890024012A0BD00A6862B14B6873B1E9
:1046C00053601A600289521E02814C600C6010BD5A
:1046D00004604460F6E74A6814600260F2E75460E0
:1046E0004260EFE770B50646C58F046B07E0E068EF
:1046F00021460830FFF7DBFF20346D1EADB2002DE0
:10470000F5D10020F087306370BD10B50B6BC98FF9
:1047100008E0DC68844202D1DA61186110BD203300
:10472000491E89B20029F4D110BD90F837108F4A84
:1047300001EB410102EB810100230A8942B1521CC5
:104740000A810A68C0E903230A681061086070479B
:1047500001220A81C360036108604860704790F8D5
:104760003710824A01EB410102EB810100230A89E3
:104770003AB1521C0A81C3604A680261D060486045
:10478000704701220A81C36003610860F7E710B532
:10479000044690F8370001F0F4F8764994F83700B1
:1047A00009788842204602D1BDE81040D7E7BDE82D
:1047B0001040BAE710B5044602F0DAFD94F836105E
:1047C000490703D42046BDE81040E0E710BD2DE9BD
:1047D000F041074691F83600002615460C464FF08A
:1047E0000108082832D2DFE800F031310404313109
:1047F000191994F83400032802D13846FFF785FFD1
:10480000E665A4F86060256417B12046FFF76AFFEB
:104810002046FFF7CFFF3434A67014E094F834003C
:10482000032802D13846FFF770FFE665A4F8606000
:10483000256417B12046FFF755FF204602F098FD8A
:1048400004203434A07084F801802670B9E541A2B8
:10485000C1F8BC20816811B18968096A00E03DA1F6
:10486000C161704770B580F83710C58F046B0FE0D9
:10487000E66808363089012807D921463046FFF717
:1048800016FF21463046FFF772FE20346D1EADB292
:10489000002DEDD170BD00210160416001817047A4
:1048A0000289521C028102684A6000220A60026882
:1048B00002B1116001600289012A00D14160704794
:1048C00010B50B6BC98F08E0DC68844202D1DA6155
:1048D000186110BD2033491E89B20029F4D110BDE2
:1048E0002DE9F0410C4691F83610002502261746B6
:1048F000082942D2DFE801F041410404414118187F
:1049000094F83410032902D12146FFF7D9FFE56559
:10491000A4F8605020462764FFF7E4FE2046FFF726
:1049200049FF3434A57013E094F83410032902D100
:104930002146FFF7C5FFE565A4F8605020462764CF
:1049400002F016FD2046FFF7CDFE04203434A0709F
:10495000667011E0200000005461736B205100006C
:104960005461736B2053656D000000003C410020D2
:10497000D80000208E000020257022E570B50C6B59
:10498000049DC98F0AE0E668864204D1C4E90402A6
:104990002383E56170BD2034491E89B20029F2D11C
:1049A00070BDF8B50C46054691F8361000260698FD
:1049B0001F4608293AD2DFE801F0393904043939B1
:1049C000212194F83410032911D0E265A4F8607015
:1049D000206435B12046FFF785FE21462846FFF7C3
:1049E00036FF2046FFF7E6FE3434A6701CE0009048
:1049F0003B4621462846FFF7C1FFEAE794F834100A
:104A0000032914D0E265A4F860702064204602F007
:104A1000AFFC35B12046FFF765FE21462846FFF77B
:104A200016FF04203434A07066702670F8BD009024
:104A30003B4621462846FFF7A1FFE7E770B505464C
:104A400012480078012820D1FFF784F9044628682D
:104A5000B0B10F49884213D0816D11B1491E8165F3
:104A60000ED1288902280BD30A48007840B928467D
:104A7000FFF7A9FC2868416D09B9074909688165F4
:104A80002046BDE87040FFF769B970BDA000002066
:104A9000704000209A0000209C0000207047000019
:104AA0000023FC4AFAA14361C161116819B1816117
:104AB0004861106070478361FBE72DE9F0410446CF
:104AC000F54816460F4600781D4610B142F6E160E3
:104AD0001CE0CCB1FFF73EF9266280460026EF4885
:104AE0006662C4E9000704F10800FFF7D4FE20461F
:104AF000FFF7D6FFEA490888401C08804046FFF7C8
:104B00002DF92E80BDE8F08145F6C3501880F9E7F5
:104B1000E4490160E4A14160002101620830FFF72F
:104B2000BABED0E9052100232AB151B191614A6191
:104B3000836143617047D74A116001B14B61836162
:104B400070479361F5E72DE9F05F0746D2481446B8
:104B50008946007810B143F2C9200AE03FB145F61A
:104B6000256B51B1012908D0A2F800B002E045F64A
:104B7000C35010800020BDE8F09FC84938688842C3
:104B800002D045F6C450F4E7FFF7E4F882463D8AC8
:104B90005FEA0900DFF8089307F10806A84608D085
:104BA00001281FD05046FFF7D9F8A4F800B04046BE
:104BB000E1E7B8F1000F06D05046FFF7CFF847F213
:104BC0005F102080F3E73846FFF7ABFFB9F800101D
:104BD0003846491EA9F80010FFF79AFF5046FFF724
:104BE000BDF81DE0FBF711FB834607E030685A462D
:104BF00081683846FFF774FE6D1EADB2002DF5D109
:104C00003846FFF78EFFB9F800103846491EA9F85C
:104C10000010FFF77DFF5046FFF7A0F8FFF741FBBC
:104C20000020CEE730B4A24C029D246844F8802FC7
:104C30000022238162602B4630BC0122FFF713BDA6
:104C40002DE9FF4F05468BB09348DDE918640078E5
:104C50001F46894610B146F2AE1018E0ADB148F2D9
:104C60000101781A8F422DD01DDC40F20111A7F20C
:104C700001108F4226D00FDC012F23D0022F21D02C
:104C8000042F1FD0082F1AD11CE045F6C3502080F6
:104C900000200FB0BDE8F08F012813D0032811D0F9
:104CA00007280CD10EE0B0F5807F0BD0F4DDA0F525
:104CB0008070013806D0022804D0062802D045F6BC
:104CC0002560E4E775492868884202D045F6C4505B
:104CD000DDE7F80501D5012000E0002080460EB197
:104CE0000020306007F00F000990FFF733F883468B
:104CF00009987049012835D0022842D0042803D0F1
:104D000008281CD0584698E0286A00EA090ACA45D3
:104D10003BD1B8F1010F02D120EA0A0028626448B1
:104D20000068C0F884A014E0686A306013E0087876
:104D300098B35846FFF712F846F66350A7E7286A7B
:104D400010EA090A21D0B8F1010F15D120EA0A00B2
:104D500011E0002EE8D15846FFF700F8002020802F
:104D6000504696E7286A29EA000ACA450DD1B8F1EB
:104D7000010F13D000E028624D490968C1F884A0F2
:104D8000E7E7286A39EA000AF1D13804CFD5584656
:104D9000FEF7E4FF46F2B01079E702E040EA0A00CD
:104DA000E9E70D9800903B464A46294601A8FFF7DF
:104DB00039FF5846FEF7D2FFFFF773FAFEF7CAFF36
:104DC0003B4B1A6892F8351051B1012914D00229D1
:104DD00022D0032918D0FEF7C1FF46F62E6056E711
:104DE0000EB1116C3160002727801968B8F1010FEE
:104DF000D1F8846018D029E00EB1116C3160FEF753
:104E0000ADFF46F2A91042E70EB100213160FEF776
:104E1000A5FF47F2D9203AE70EB1116C3160FEF7D9
:104E20009DFF45F6C25032E7099901290BD00229AE
:104E300009D0042904D0082902D0FEF78FFF3EE7ED
:104E4000296AB14301E0296A31432962FEF786FFEE
:104E5000278030461DE72DE9F05F80460E480F465B
:104E60001446007810B146F2AA1027E0B8F1000FFE
:104E700022D04FF4807A57B1574521D0B7F5004F73
:104E80001ED0B7F5014F1BD045F6256016E017E0A0
:104E9000200000007800002074000020464C4147AC
:104EA0007C0000204E4F4E453F464C4147000000DD
:104EB000D80000209A00002045F6C35010801AE068
:104EC0008949D8F80000884202D045F6C450F5E779
:104ED000FEF740FF8146B8F8100008F1080520B140
:104EE0000026FBF792F9834611E04846FEF736FFAD
:104EF00046F2AB10208000203DE628685A468168C3
:104F00004046FFF764FC761CB6B2574502D12889AB
:104F10000028F2D14846FEF721FF380401D4FFF7FC
:104F2000C0F900202080304625E670B504466F4861
:104F3000007820B146F2AE102080002070BDFEF750
:104F400009FF6B490968D1F88450FEF707FF00207C
:104F50002080284670BD70B500F13404002521651D
:104F6000657025700264A078343C08280ED2DFE812
:104F700000F00D0D04040D0D0A0A2046FFF71AFC7F
:104F800084F8365002E0042084F836002046BDE85C
:104F90007040FFF7A7BB2DE9F0479A4690460D46B3
:104FA0000446089EFEF7D6FE07465FEA08000FD0CB
:104FB000012810D0B0F5004F0AD06FF4004118EB73
:104FC000010008D03846FEF7C9FE45F6256028E006
:104FD000206A284301E0206AA843C4E9080A218A1C
:104FE00004F108004FF0000909B1056837E03846C0
:104FF000FEF7B4FEA6F80090206ABDE8F08790F8AE
:1050000088106D6801F00F01012917D002291DD009
:10501000042909D008290CD03846FEF79FFE43F634
:10502000FF2030800020E8E7216AD0F8802011407E
:1050300009E0216AD0F8802011400BE0D0F8801000
:10504000236A0A4699438A4205D007E0D0F88010C7
:10505000226A914311B15246FFF77DFF15B1A8684E
:105060000028CCD13846FEF779FE5FEA084001D42B
:10507000FFF717F9FEF76EFE246AFEF76FFEA6F83B
:1050800000902046B9E7F8B514460F4606001D46C5
:105090000CD074B1012C0CD0B4F5004F09D06FF4D2
:1050A0000040201805D045F6256008E045F6C350BD
:1050B00005E00D493068884204D045F6C450188098
:1050C0000020F8BDFBF7A1F80346224639463046DA
:1050D0000095FFF760FFF8BD064A00211160064AFF
:1050E0001180018070470000464C41477400002049
:1050F000D8000020780000207C000020504B0022C7
:105100008261196819B1C161886118607047C26114
:10511000FBE72DE9F04704464A48DDE908750078C9
:10512000984616468A4610B145F2B96014E045F239
:10513000BB615EB1B8F1020F01D2481C0CE045F230
:10514000C160042F08D316F0030F02D02980BDE8F8
:10515000F08717F0030F01D02880F8E7A8F10101CC
:105160008BB23246002104E0D0191060491C02467F
:1051700089B29942F8D34FF00009C2F80090FEF7C7
:10518000E9FD8446304884E84104E660A4F81480D0
:10519000A4F8128027822046FFF7B0FF2B49088829
:1051A000401C08806046FEF7D9FDA5F80090CEE7C8
:1051B00070B504000D460ED0FEF7CCFDA18A71B18A
:1051C000E668491E3268E260A182FEF7C7FD002052
:1051D0002880304670BD45F2BF60088004E0FEF7CD
:1051E000BDFD45F2C2602880002070BD70B50E463E
:1051F000040015460BD06EB1FEF7ACFDA18A628AA1
:1052000091420BD3FEF7AAFD45F2BA600FE045F2DA
:10521000BF6001E045F2BE60108070BDE1683160A2
:10522000E660A18A491CA182FEF798FD0020288033
:1052300070BD034A00211160044A1180018070474B
:1052400080000020740000204D454D208400002087
:10525000F0B55B4E316859B15A4F398859B13B8826
:1052600031685B1E9DB2002301F110021C460EE066
:1052700045F21E7101E045F21D710180F0BDC1E9EA
:1052800000240C81CC60103110325B1C9BB2AB420D
:10529000F5D30C604C600C81CC604B4932680A60DD
:1052A0003A888A80CC800C810480F0BD10B5428998
:1052B00092B1454903680C681C6043680B60CB8859
:1052C00044891B1BCB808B88448923448B8000211D
:1052D0004181818101604160104610BD0181002142
:1052E00041818181016041607047F0B544890025AA
:1052F000CCB14468278966680F800AB1E168116003
:1053000021684160B9B14189491E41812E48016837
:10531000216004608188491C8180C188491EC18048
:105320001D803046F0BD0D8002B1156046F29250EE
:1053300018800020F0BD05604581E7E7F0B544899D
:10534000DDE905E60589AC4202D346F293501EE042
:105350001D4DAF88CFB12C687F1ED4F800C0C5F8B2
:1053600000C0AF80EF887F1CBFB2EF80B5F808C0E7
:10537000BC4500D22F814789002557B1DB060ED4EA
:1053800003681C60046025600CE045F21D703080ED
:10539000F0BD0460012344604381256005E043685B
:1053A0002360446043895B1C4381878943899F4212
:1053B00000D2838161602281C4F80CE03580F0BDA9
:1053C00038A3000834A30008304100200023F94A24
:1053D000F7A14361C161116819B181614861106031
:1053E00070478361FBE72DE9F0410446F2480E4621
:1053F0001546007810B142F6E16021E0F4B1FEF705
:10540000A9FC0746ED48C4E900060026266284F898
:1054100025604020A66284F8240004F10800FFF70C
:105420003AFA2046FFF7D2FFE5490888401C088079
:105430003846FEF793FC2E80BDE8F08145F6C35058
:105440001080F9E7DF490160DFA1416000210162BE
:1054500080F825108162402180F824100830FFF781
:105460001ABAD0E9052100232AB151B191614A61EC
:10547000836143617047CF4A116001B14B61836121
:1054800070479361F5E72DE9F05F0746CA480E467D
:105490001446007810B143F2C92008E02FB146B19C
:1054A000012E06D045F6256001E045F6C350108078
:1054B00062E0C2493868884202D045F6C450F6E737
:1054C000FEF748FC3D8ADFF8F8B2824607F108088B
:1054D000A9463EB1012E20D05046FEF73FFC45F6CE
:1054E000256007E0B9F1000F08D05046FEF736FC02
:1054F00047F25F1020804846BDE8F09F3846FFF72E
:10550000B0FFBBF800103846491EABF80010FFF79B
:1055100099FF5046FEF722FC4BE03E6A16B396F820
:10552000370097F8241088421CD096F836000828D7
:105530001CD2DFE800F004111414111114143046C9
:10554000FFF755F897F8240086F8370000F019FAAD
:105550003046FFF704F905E086F8371002E03046E0
:10556000FFF780F9FAF751FE064610E05046FEF7C5
:10557000F5FB46F62D6020800020BDE7D8F800003E
:10558000324681683846FFF7ABF96D1EADB2002D8B
:10559000F4D13846FFF765FFBBF800103846491EC6
:1055A000ABF80010FFF74EFF5046FEF7D7FBFEF7B3
:1055B00078FE00209EE72DE9F04F06467E4889B030
:1055C0001C460078129D90468B4610B146F2AE10F4
:1055D0009BE046B1B8F1000F08D0B8F5004F05D0F8
:1055E00045F6256091E045F6C3508EE0734930687A
:1055F000884202D045F6C45087E04FF0000A0CB153
:10560000C4F800A0FEF7A6FB814696F82500704A74
:1056100078B1376A11688F421FD1401C86F8250087
:105620000CB1B06A20604846FEF798FB45F28270E4
:105630006BE01068306290F8370086F82400012093
:1056400086F825000CB1B06A20604846FEF786FB5C
:10565000A5F800A009B0BDE8F08F5FEA084005D5C5
:105660004846FEF77BFB46F2B0104EE05948007802
:1056700028B14846FEF772FB46F6635045E097F8BE
:10568000370091F83710904688421ED997F83600B7
:10569000082835D2DFE800F0041316161313161687
:1056A0003846FEF7A4FFD8F8000090F8370087F8D6
:1056B000370000F066F93846FFF737F805E087F85D
:1056C000371002E03846FFF7CDF85B46042231463A
:1056D0006846FEF7C8FF4846FEF740FBFEF7E1FDCF
:1056E000FEF738FBD8F8002092F8351079B101297F
:1056F00013D0022920D0032915D046F62E6117E0D9
:105700004846FEF72BFB46F62D602880A2E70CB139
:10571000116C2160A5F800A00BE00CB1116C2160A8
:1057200046F2A91104E00CB1C4F800A047F2D92157
:105730002980FEF713FB8DE70CB1116C216045F653
:10574000C251F5E72DE9F05F80461B480F4614462D
:10575000007810B146F2AA1012E0B8F1000F0DD097
:105760004FF4807A77B157450CD0B7F5004F09D088
:10577000B7F5014F06D045F6256001E045F6C35068
:1057800010802FE00D49D8F80000884202D045F67D
:10579000C450F5E7FEF7DEFA8146B8F8100008F1CC
:1057A0000805C8B10026FAF730FD834626E0000060
:1057B0002000000088000020740000204D5554583F
:1057C0008C0000204E4F4E453F4D5554455800002B
:1057D000D80000209A0000204846FEF7BFFA46F2A3
:1057E000AB102080002087E628685A468168404632
:1057F000FEF7EDFF761CB6B2574502D12889002886
:10580000F2D14846FEF7AAFA380401D4FEF749FD62
:105810000020208030466FE62DE9F84F04464648C8
:1058200015468946007810B146F20E2010E034B1DA
:1058300041B1B1F5004F05D045F6256008E045F6C9
:10584000C35005E03D492068884204D045F6C45065
:105850001080BDE8F88FFEF77DFADFF8E48082461D
:10586000216AD8F80000814205D05046FEF776FA4A
:1058700045F2817010E0FAF7C8FC0646A06294F881
:105880002500401E10F0FF0084F8250006D0504689
:10589000FEF764FA45F283702880DAE7208A04F183
:1058A00008074FF0000BB0B3D8F8000094F824308C
:1058B00090F837209A4213D0FEF799FED8F80010DE
:1058C00094F8240081F8370000F05BF8D8F8000065
:1058D000FEF745FFD8F800001A4990F83700087025
:1058E000386800231A468168216291F8370084F8ED
:1058F0002400012084F8250020460096FFF751F887
:105900005046FEF72BFA5FEA094001D4FEF7C9FCC6
:10591000A5F800B09DE7FFE75E465046C4F820B00A
:10592000FEF71CFA2E8094E7074A00211160074A0F
:105930001180018070470000740000204D555458BC
:10594000D80000208E000020880000208C0000205D
:1059500000201A4A014642F82010401C0228FAD3BF
:10596000704710B50024154802E02034E4B2001D51
:1059700001680029F9D00846FEF7F7F92044C0B2C3
:1059800010BD00F01F0241090120C2F11F0290402A
:105990000A4A52F82130034342F82130704700F0A0
:1059A0001F0241090120C2F11F029040034A52F830
:1059B0002130834342F82130704700004C00002022
:1059C0000023FF4AFDA14361C161116819B18161E2
:1059D0004861106070478361FBE72DE9F0410446A0
:1059E000F84816460F4600781D4610B142F6E160B1
:1059F00023E0ECB1FEB1FEF7ADF98046F248C4E910
:105A00000007314604F12000FFF768FC04F10800AC
:105A1000FEF741FF2046FFF7D3FFEC490888401C02
:105A200008804046FEF79AF900202880BDE8F08102
:105A300045F6C35001E046F294501880F6E770B581
:105A4000044620300546FFF731FCE1482060E1A024
:105A5000606000212846FFF741FC04F10800BDE822
:105A60007040FEF718BFD0E9052100232AB151B1DB
:105A700091614A61836143617047D14A116001B10C
:105A80004B61836170479361F5E72DE9F05F07464D
:105A9000CC4814468946007810B143F2C9200AE088
:105AA0003FB145F6256B51B1012908D0A2F800B0ED
:105AB00002E045F6C35010800020BDE8F09FC249C7
:105AC0003868884202D045F6C450F4E7FEF742F940
:105AD00082463D8A5FEA0900DFF8F09207F1080686
